:020000040800F2
:1000000010590020C1010008794D00088D3F0008FB
:100010001D4A00080D0E0008616400080000000081
:100020000000000000000000000000004D5E00081D
:10003000A91000080000000027520008995E00087F
:10004000DB010008DB010008DB010008DB01000820
:10005000DB010008DB010008DB010008DB01000810
:10006000DB010008DB010008DB010008DB01000800
:10007000DB010008DB010008E10F0008DB010008DC
:10008000DB010008DB010008DB010008DB010008E0
:10009000DB010008DB010008DB010008DB010008D0
:1000A000DB010008DB010008DB010008DB010008C0
:1000B000495F0008DB010008DB010008DB010008E4
:1000C000DB010008DB010008DB010008DB010008A0
:1000D000DB01000819640008256400083964000881
:1000E000DB010008DB010008DB010008DB01000880
:1000F000DB010008DB010008DB010008DB01000870
:10010000DB0100085D520008DB010008DB0100088C
:1001100089600008DB010008DB010008DB01000842
:10012000DB010008DB010008DB010008ED0F00081F
:10013000DB010008DB010008DB010008DB0100082F
:10014000DB010008DB010008DB010008DB0100081F
:10015000DB010008F90F0008DB0100084D6400080E
:10016000DB010008DB010008DB010008DB010008FF
:10017000DB010008DB010008DB01000800000000D3
:10018000DB010008DB0100089D600008B160000889
:10019000DB010008DB010008DB010008DB010008CF
:1001A000DB010008DB010008DB010008DFF80CD0F0
:1001B00000F0C6FC0048004775AD0008105900204B
:1001C0000648804706480047FEE7FEE7FEE7FEE7F1
:1001D000FEE7FEE7FEE7FEE7FEE7FEE7395F000821
:1001E000AD0100082DE9F05F0546002092469B46D0
:1001F00088460646814640241BE02846414647463D
:10020000224600F0C2FA53465A46C01A914110D312
:1002100011461846224600F0A9FA2D1A67EB01088C
:100220004F4622460120002100F0A0FA17EB0009FA
:100230004E41201EA4F10104DFDC484631462A4627
:100240004346BDE8F09F10B5431A934209D2831884
:10025000881803E010F8011D03F8011D521EF9D2A1
:1002600010BD40EA01039B0703D009E008C9121F33
:1002700008C0042AFAD203E011F8013B00F8013B60
:10028000521EF9D210BDD2B201E000F8012B491E76
:10029000FBD270470022F6E710B513460A46044623
:1002A0001946FFF7F0FF204610BD30B505462A4637
:1002B0000B4612F8010B13F8014B08B1A042F8D01D
:1002C0001CB1002802D06D1CF1E7284630BD421C4D
:1002D00010F8011B0029FBD1801A704770B5064643
:1002E00006F048F9046805460A220021304600F06D
:1002F0006EFA2C6070BD2DE9FE4F804681EA030046
:10030000C00F0C46009021F0004123F00045B8EBEF
:100310000200A94105D24046214690461C460B46A4
:10032000024623F00040104347D0270DC7F30A00D0
:10033000C3F30A510290401A019040286BDAC3F3CC
:10034000130040F4801B0098924620B10023D2EBAA
:10035000030A63EB0B0B01985946C0F1400250466B
:1003600000F004FA06460D4650465946019A00F040
:100370001CFA10EB08006141002487EA115284EA5C
:10038000E7731A4340D0009A62B3019A012A4FEAF8
:10039000075215DC001B61EB02014FF0004202EA3C
:1003A0000752CDE90042001C41F5801132462B4630
:1003B00000F09BFA03B0BDE8F08F40462146F9E714
:1003C000001B61EB0201001C41F5801300185B412A
:1003D0002018A2F5001747EB030140EAD570B619C3
:1003E0006D4111E06D084FEA360645EAC0754FEAE7
:1003F0000752001B61EB0201001C41F58011490806
:100400004FEA30000019514132462B4603B0BDE897
:10041000F04F00F05BBA0098012240000023D0EBBF
:10042000020263EBE073009821464FEAE074B8EBF8
:10043000000061EB0401E9E783F000435BE781F032
:10044000004158E72DE9FE4F81EA030404F000441F
:1004500021F0004100944FF0000B23F0004350EADC
:1004600001045ED052EA03045BD0C3F30A54C1F323
:100470000A552C44A4F2F3340194A0FB0254C1F3B6
:10048000130141F48011C3F3130343F4801301FB00
:10049000024400FB034E840A970A44EA815447EA67
:1004A0008357A4FB076802958D0A05FB07854FEA71
:1004B000932C04FB0C542705029D4FEA065847EA8B
:1004C0001637B5EB08056EEB070C870E920E47EA60
:1004D000811742EA8312A7FB0201B6EB0B0164EB22
:1004E00000042B0D43EA0C335E1844EB1C50DA4633
:1004F0005146E7FB0201C5F313044FEA0B3343EA0D
:1005000014534FEA0432019C43EA0603A4F10C049D
:100510000294009CCDE900B400F0E7F903B0BDE817
:10052000F08F00200146F9E72DE9F04D81EA030440
:1005300004F0004B21F0004514464FF0000A23F070
:10054000004150EA050220D054EA01021DD0C5F353
:100550000A570246C5F31303C1F31300C1F30A5649
:1005600040F4801543F48013A7EB0608101BD64611
:1005700008F2FD3873EB050002D308F1010801E031
:1005800092185B41B8F1000F03DA00200146BDE884
:10059000F08D00204FF48011064684460EE0171BB4
:1005A00073EB050705D3121B63EB050306434CEA07
:1005B000010C49084FEA300092185B4150EA0107EC
:1005C000EDD152EA030012D082EA040083EA050169
:1005D000084305D0101BAB4106D20122002306E0E0
:1005E00000224FF0004302E06FF0010253101AEBBB
:1005F00006004CEB085110EB0A0041EB0B01BDE883
:10060000F04D00F063B90EB5C10F80EAE070084408
:10061000CA07002140F233438DE80E000A460B461C
:1006200000F063F903B000BD0EB540F23341029112
:100630000021CDE900110A460B4600F056F903B03F
:1006400000BD70B5C1F30A5201F000450024C1F3AA
:10065000130140F2FF3341F480119A4201DA002085
:1006600070BD40F233439A42A2F2334203DC52425D
:1006700000F08BF800E090402C43F1D0404270BD78
:10068000C1F30A5210B5C1F3130140F2FF3341F434
:1006900080119A4201DA002010BD40F233439A42A1
:1006A000A2F2334203DC524200F06FF810BD9040DA
:1006B00010BD00F0004230F000400AD0C10D01F53D
:1006C0006071C0F3160042EA0151C20840071143AD
:1006D000704700200146704730B5041E71F10004D8
:1006E00004DB4FF00044404264EB0101141E73F13F
:1006F000000405DB1C464FF00043524263EB040349
:100700008B4208BF824230BD01F0004330B421F07B
:10071000004150EA010206D00A0DA2F56072C1F351
:100720001301002A02DC30BC00207047440F44EA69
:10073000C104C100E01830BC00EBC25000F08FB81B
:1007400030B50B46014600202022012409E021FAA1
:1007500002F59D4205D303FA02F5491B04FA02F59E
:100760002844151EA2F10102F1DC30BD202A04DB71
:10077000203A00FA02F1002070479140C2F12003B4
:1007800020FA03F3194390407047202A04DB203AF3
:1007900021FA02F00021704721FA02F3D040C2F1A1
:1007A00020029140084319467047202A06DBCB17E8
:1007B000203A41FA02F043EAE07306E041FA02F31C
:1007C000D040C2F1200291400843194670472DE9FC
:1007D000F04791460E4680460446002514F8017BFA
:1007E0002FB100F0BFF90068C05DC007F6D12B2F14
:1007F00002D02D2F1ED0641E4A463146204600F0FE
:10080000B5F926B13268A24201D1C6F800806A0566
:100810004FF0020418D50023D0EB030563EB01026F
:100820005D1B934109DB0023D0EB030063EB010167
:10083000BDE8F08745F48065DEE705F09BFE0460C7
:1008400000204FF00041F3E7021E71F10002EFDAE1
:1008500005F090FE04604FF0FF304108E8E7002902
:10086000A8BF7047401C490008BF20F00100704736
:1008700010B4B0FA80FC00FA0CF050EA010404BF96
:1008800010BC704749B1CCF1200421FA04F411FAEC
:100890000CF118BF012121430843A3EB0C01CB1D30
:1008A0004FEA00614FEA102042BF002010BC7047A1
:1008B00000EBC35010440029A4BF10BC7047401C7B
:1008C000490008BF20F0010010BC704710B5141E8D
:1008D00073F1000408DA401C41F1000192185B41F9
:1008E0001A4301D120F0010010BD2DE9F04D9246D0
:1008F0009B4611B1B1FA81F202E0B0FA80F22032E7
:100900009046FFF733FF04460F4640EA0A0041EAEB
:100910000B0153465A46084313D0114653EA0100CF
:1009200019D0C8F140025046FFF72FFF05460E468A
:10093000504659464246FFF719FF084305D00120AB
:1009400004E020463946BDE8F08D0020054346EA24
:10095000E0762C4337430A986305E40AA0EB0800CD
:100960000022FD0A44EA47540A3002D5002001461D
:10097000E9E7010510196941DDE9084500196941F8
:10098000BDE8F04DA2E770B521F0004303430CD061
:10099000C1F30A550024D5EB040564EB0403D61714
:1009A000AD1AB34102DB0020014670BD201841EBB7
:1009B000025170BD2DE9F04D00231A461B1A8A41E1
:1009C00003DB00200146BDE8F08DC1F30A52C1F3FC
:1009D000130141F480154FF0000BD10702D100182C
:1009E0006D41521E0027044640F2FF11384601EBCC
:1009F000620A3E468046024600204FF48011FFF70F
:100A0000C4FEC2197141BB1846EB0100B4EB030CE4
:100A100075EB000C04D3E41A65EB000517460E468F
:100A2000241908F101006D4180463428E3DDF919ED
:100A300046EB0600091BA84103D24FF0FF321346D4
:100A400001E0002213461BEB070046EB0A51BDE80C
:100A5000F04DFFF73BBF00002DE9F041054621F0C6
:100A600000400C46284309D0C4F30A5040F23341F9
:100A7000884205DD28462146BDE8F0812846FBE78F
:100A800040F2FE31884210DC0CDB4FEA043040EAD1
:100A9000155050EA053105D0104804F000410143DB
:100AA0000020E9E700200146E6E7A0F23340464295
:100AB000C6F1400228462146FFF758FE0746884601
:100AC000284621463246FFF760FE43463A46FFF786
:100AD000FDFE3246BDE8F041FFF748BE0000F03FA2
:100AE000C1F30A52C1F3130140F2FF3341F4801104
:100AF0009A4202DA00200146704740F233439A429C
:100B0000A2F2334202DC5242FFF73FBEFFF72EBE95
:100B100030B5041E71F1000404DB4FF00044404284
:100B200064EB0101141E73F1000405DB1C464FF059
:100B30000043524263EB0403994208BF904230BD28
:100B4000064C074D06E0E06840F0010394E807001A
:100B500098471034AC42F6D3FFF72CFB0C930308F4
:100B60002C93030800487047649203082DE9F74F5F
:100B70004FF00009009C1546CA4614F8010B3028B6
:100B800001D0ADB115E014F8010B4FF00109782840
:100B900003D0582801D04DB10BE00DB1102D08D174
:100BA0004FF00009102514F8010B02E0082500E0C1
:100BB0000A2500273E46B8464FEAE57B16E0A5FB2E
:100BC00007230BFB073105FB080005FB0616030C8A
:100BD000D71846F100061FFA80F8381E4FF00109B9
:100BE00076F5803000D3CA4614F8010B294600F090
:100BF0001EF80028E3DA019838B1B9F1000F01D0EE
:100C0000641E00E0009C01980460BAF1000F08D057
:100C100005F0B0FC02210160C81E014603B0BDE82A
:100C2000F08F310441EA174148EA0740F6E73A28D5
:100C300000D2303820F02002412A01D3A2F137003F
:100C4000884201D34FF0FF307047000030B51C4898
:100C500000680168C94389060FD440680021C4B206
:100C600018480123027812B1012A07D025E0682C28
:100C700003D1417003708180418030BD114A858865
:100C8000921DAC548288521C95B285808279A0F85E
:100C90000624954202D245882C444480EDD1094C6B
:100CA000857804F10504145D074AAC4204D1074C71
:100CB00023700170137030BD1170017030BD0000E1
:100CC00060450020940700209D00002000000020C7
:100CD00030B51C4800680168C94389060FD44068D4
:100CE0000021C4B218480123027812B1012A07D0AA
:100CF00025E0682C03D1417003708180418030BDB4
:100D0000114A8588921DAC548288521C95B2858008
:100D10008279A0F80624954202D245882C4444806A
:100D2000EDD1094C857804F10504145D074AAC4205
:100D300004D1074C23700170137030BD1170017025
:100D400030BD0000604400209C0B00209D0000206E
:100D500000000020704700000146014802F0DEB8A4
:100D6000DC42002010B5044802F0EAF8042801D063
:100D7000012010BD002010BDDC42002010B500F0A5
:100D800015F8012801D0012010BD074802F0F2F942
:100D9000044634B94FF40061034801F077FF00B115
:100DA0000124204610BD0000DC42002081B001205B
:100DB00000909DF8000001B07047000010B50024BD
:100DC00013460A460146034802F0B6FA00B1012470
:100DD000204610BDDC420020014901208860704798
:100DE000E000002010B5002413460A4601460348DF
:100DF00002F042FB00B10124204610BDDC4200207D
:100E00000149012048607047E0000020FEE7000033
:100E10002DE9F041584800680168C943890632D479
:100E20004068564D0024C1B22F7801269FB14FF083
:100E3000020EA5F11000012F12D02B469A1DB3F817
:100E400004C04F4B022F31D0032F41D0042F5AD072
:100E5000052F63D03AE0552915D16C702E7022E031
:100E6000482912D0454810385229007A11D0452916
:100E700014D0462907D1022805D16C7005202870AE
:100E8000AC809B206880BDE8F0816C7085F800E044
:100E900009E00128F7D16C70032003E00228F2D1A9
:100EA0006C7004202870AC806C80ECE70CF80210A9
:100EB000A988491C89B2A9800229E4D1A9795A7864
:100EC000914203D1E979232900D106722C70DAE727
:100ED0000CF80210A988491C89B2A9800829D2D12E
:100EE000A9795A789142F1D1697B2329EED180F812
:100EF00008E0E979AA6841EA02214160B5F80B20CF
:100F0000028020A02BE00CF80210A888401C80B2C0
:100F1000A8800228B7D1A8795978D7E70CF8021031
:100F2000AA88521C97B2AF806A88052F114489B2F3
:100F3000698017D0A7D9828902F1050C674500D1D5
:100F40001981D11D8F429ED10C491B890B3111444F
:100F500009889942BAD111490E70418910A005F053
:100F6000BDFAB3E7A9795A7891428CD135F8071FB9
:100F700041816988818186E7A0450020B40F002067
:100F8000000000205069634C656E3A25642050696A
:100F9000634E756D3A25640A000000009C00002035
:100FA0005069634E6F3A2564205069634E6F4C65FB
:100FB0006E3A25640A000000074B10B5002019782E
:100FC0000246064C491C02E02254401CC0B2884232
:100FD000FAD31A7010BD0000B00000200E400020AF
:100FE000014800F0E1BC000020460020014800F06C
:100FF000DBBC000060430020014800F0D5BC0000CD
:10100000C043002001681823CAB2103AB2FBF3F2C1
:10101000054B6FF30901032A9B5CC36500D9091DC9
:101020008165084670470000CCE3000810B5014612
:1010300000208B698A6A4FF0C07453B1B3F5005F2A
:1010400015D072B1012A0CD0022A0AD0032A09D184
:1010500004E01AB1012A06D0022A03D1C96AC901E3
:1010600000D5012010BDC96AA142FAD010BD002AE6
:10107000F7D0012AF2D0022AF3D0032AF3D010BD10
:1010800030B50468256825F4802525600468636010
:101090008368402B036803D099600068C26030BD4C
:1010A0009A600068C16030BD7047000010B568B13B
:1010B0004FF4FA7000F0EAFD0FA009F0DDFD4FF4E7
:1010C0001674204600F0E2FD204610E0FFF774FFA2
:1010D0000AA009F0D1FD322000F0D8FD0CA10E4885
:1010E000FFF7E3F80D49C860FFF766FF3220BDE85F
:1010F000104000F0CBBD00002B2B2B0041542B5196
:10110000495357544D443D302C320D0A0000000025
:10111000434F4E4E454354000E400020B000002087
:1011200030B50B4B00221D1D0DE01C686406FCD57C
:10113000845C2C60841814F8014CFF2C02D1845C70
:10114000D92C03D0521CB2EB810FEED330BD00007E
:10115000007C004038B51DA009F08EFDC82000F0CD
:1011600095FD1EA11F48FFF7A0F81F4C00286061E5
:1011700028D01EA1FFF799F8801CA0611CA061690E
:1011800005F0ACF91DA0A16905F0A8F901250095AD
:101190000C2335213C20A26904F00AF80C23172205
:1011A00035215B20009503F05DFFA069FFF78FF804
:1011B000014615A005F092F94FF4FA7008F058F9BD
:1011C000FFF7FAFEBDE83840FFF7F6BE41542B5159
:1011D0004952443D302C370D0A0000002B51495232
:1011E000443A00000E400020B00000207777000055
:1011F0007472793A25730D0A0000000072657375E8
:101200006C743A25730D0A004C656E677468206F24
:10121000662074686520737472696E673A20257A57
:10122000750A000070B5284E04460025357027A0C9
:1012300009F022FD642000F029FD204609F01CFD84
:10124000322000F023FD254801684906FCD52349DA
:101250001A20091D0860C82000F018FD20A12248AE
:10126000FFF723F8214CE06058B10120204930708D
:10127000A560D1E90002401C42F10002C1E9000270
:1012800005E0A068401CA060032800DB35706560A5
:101290000FE0606812A1401C60601348FFF705F87A
:1012A000E0600A2000F0F2FC6068032801DB656062
:1012B00002E0E0680028ECD0642000F0E7FCBDE824
:1012C0007040FFF779BE00009800002041542B5178
:1012D0004953454E443D300D0A000000007C00405B
:1012E00053454E44204F4B000E400020B0000020DC
:1012F000880000202DE9F04194A009F0BDFC4FF4D6
:10130000FA76304600F0C2FC92A19348FEF7CDFF7A
:10131000924C00256560E06017E06068401C6060EA
:101320008FA005F0DBF8FFF747FE88A009F0A4FCCA
:10133000304600F0ABFC87A18748FEF7B6FFE060BF
:101340006068192801DD656002E0E0680028E4D0EB
:101350008AA009F091FC304600F098FC8AA17E48F2
:10136000FEF7A3FFE06038B9FFF726FE89A009F079
:1013700083FC304600F08AFC86A009F07DFCFFF774
:101380001BFE87A009F078FC304600F07FFC87A1A7
:101390007148FEF78AFF6560E06014E06068401CF9
:1013A0006060FFF709FE7EA009F066FC304600F0A1
:1013B0006DFC7EA16848FEF778FFE0606068142845
:1013C00001DD656002E0E0680028E7D0FFF7F4FD8A
:1013D0007AA009F051FC304600F058FC7AA15E4832
:1013E000FEF763FFE0607BA15B48FEF75EFF2061D4
:1013F00019E06068401C6060FFF7DEFD6FA009F037
:101400003BFC304600F042FC6FA15348FEF74DFF15
:10141000E06070A15048FEF748FF20616068142822
:1014200001DD656003E0D4E903010843E1D0FFF783
:10143000C3FD6BA009F020FC4FF47A77384600F02A
:1014400025FCFFF7B9FD6AA009F016FC384600F04C
:101450001DFCFFF7B1FD6AA009F00EFC304600F05C
:1014600015FCFFF7A9FD6AA009F006FC304600F064
:101470000DFC38A13848FEF718FFE060FFF79CFD2F
:1014800067A009F0F9FB304600F000FC67A1324884
:10149000FEF70BFFE060FFF78FFD656014E060680A
:1014A000401C6060FFF788FD5DA009F0E5FB304659
:1014B00000F0ECFB5DA12848FEF7F7FEE0606068F5
:1014C000142801DD656002E0E0680028E7D05AA03A
:1014D00009F0D2FB304600F0D9FBFFF76DFDC821C3
:1014E0005948FEF7D7FE41F6977358A25BA15648BC
:1014F00005F004F8544809F0BFFB304600F0C6FB85
:101500005FA11548FEF7D1FE614F6560E06010B144
:101510000120387013E0606859A1401C60600E48DB
:10152000FEF7C3FEE060304600F0B0FB60681428B0
:1015300002DD3D70656002E0E0680028EBD03046D7
:1015400000F0A4FBBDE8F041FFF736BD41540D0AA1
:10155000000000004F4B00000E400020B0000020B3
:101560000D0AB5A5C6ACBBFAD5FDD4DAC1ACBDD366
:10157000B5BDC4A3BFE92E2E2E0D0A0041542B5138
:101580004750533F0D0A00002B514750533A20312A
:101590000000000041542B514750533D310D0A00CB
:1015A00041542B4350494E3F0D0A00002B435049F4
:1015B0004E3A2052454144590000000041542B430B
:1015C0005245473F0D0A00002B435245473A203011
:1015D0002C3100002B435245473A20302C35000077
:1015E00041542B5149434C4F53453D300D0A0000A7
:1015F00041542B514944454143543D310D0A0000AB
:1016000041542B51494143543D310D0A0000000023
:1016100041542B43474154543D310D0A0000000012
:1016200041542B43474154543F0D0A002B4347413B
:1016300054543A203100000041542B434750414458
:1016400044523D310D0A00009E41002034332E31BA
:1016500034332E3139382E313230000041542B5181
:10166000494F50454E3D312C302C22544350222CB2
:10167000222573222C25642C302C310D0A00000009
:101680002B51494F50454E3A20302C30000000007D
:101690009800002072B6FEE7002200F001B80000BA
:1016A00010B4844601200E4B5C7A002C16D1587A77
:1016B0001C54587A03EB8000C0F804C0587A03F138
:1016C000080C00F80C20587A421C5A72303008700E
:1016D0003A2048702F208870CC70002010BC7047D2
:1016E000044B002010B51A4C0020FF232070052267
:1016F00004F11801174802F0EBFBC82000F0C6FA0D
:101700002078012822D11448417A827A0904C07ACB
:1017100041EA02210143C8020BD5C1F313010520A0
:1017200002F036FC00EE100ADFED0C0AB8EE400ABB
:1017300008E0052002F02CFC00EE100ADFED080A9C
:10174000B8EE400A80EE201A84ED041A10BD0000A5
:101750000000002060450020940700200000C8C25F
:101760000000C84210B51A4C0020FF23207005224B
:1017700004F11801174802F0ABFBC82000F086FA0C
:101780002078012822D11448417A827A0904C07A4B
:1017900041EA02210143C8020BD5C1F31301052020
:1017A00002F0F6FB00EE100ADFED0C0AB8EE400A7C
:1017B00008E0052002F0ECFB00EE100ADFED080A5D
:1017C000B8EE400A80EE201A84ED051A10BD000024
:1017D00000000020604400209C0B00200000C8C2D4
:1017E0000000C84210B5364C2DED068B30EE608AF5
:1017F00000EE100A9FED309BB8EE400A30EE600A12
:1018000010EE100A21B3FEF754FF53EC192BFEF72C
:1018100019FE41EC100B05F05FFFB0EE40AAF0EEB0
:1018200060AA18EE100AFEF744FF53EC192BFEF7DE
:1018300009FE41EC100B05F04FFFB0EE401AF0EE40
:10184000601A53EC1A2B51EC110BFEF754FD23E0F8
:10185000FEF72FFF53EC192BFEF7F4FD41EC100BB4
:1018600005F03AFFB0EE40AAF0EE60AA18EE100ABA
:10187000FEF71FFF53EC192BFEF7E4FD41EC100BB4
:1018800005F02AFFB0EE401AF0EE601A53EC1A2B66
:1018900051EC110BFEF7D0FD41EC180B2088FEF740
:1018A000C3FE53EC182BFEF7CDFDFEF72DFFBDEC6C
:1018B000068B00EE100A10BDA835CD3B4ED1913FEE
:1018C000AA000020074810B5002101704170FF23D5
:1018D00002220549054802F0FBFABDE81040C82085
:1018E00000F0D4B9A800002004000020E04500204A
:1018F0002DE9F0410446876D00F0CAFA064694F8D7
:1019000035000025022806D08020606584F8345018
:101910000120BDE8F0812068016821F01601016016
:101920002068416921F080014161206C08B9A06CF8
:1019300020B12068016821F0080101602068016879
:1019400021F0010101600BE000F0A2FA801B0528E4
:1019500006D92020606504F8345F03206070D8E762
:1019600020680068C007EFD194F85C103F208840E1
:10197000B86004F8345F012060700020C9E790F877
:101980003510022903D080214165012070470521CF
:1019900080F835100068016821F001010160002025
:1019A0007047406D704700002DE9F84304464FF042
:1019B0000009CDF8009063484FF41651A56D0068FA
:1019C000B0FBF1F72E6894F85C10082000FA01F1E2
:1019D00031420FD021680A6852070BD50A6822F0FD
:1019E00004020A6094F85C108840A860606D40F0C2
:1019F0000100606594F85C104FF0010808FA01F0EE
:101A0000304208D021684969090604D5A860606D94
:101A100040F00200606594F85C1004208840304279
:101A200008D021680968890704D5A860606D40F076
:101A30000400606594F85C1010208840304218D093
:101A400021680968090714D5A8602068016849035E
:101A500004D50068000308D5A16C07E00168C9053A
:101A600003D4016821F008010160216C09B120460E
:101A7000884794F85C1020208840304231D021689B
:101A80000968C9062DD5A86094F835000528206896
:101A9000016806D0490347D5006800031DD4616C76
:101AA0001CE021F0160101602068416921F08001ED
:101AB0004161206C08B9A06C20B12068016821F058
:101AC0000801016094F85C103F208840A86084F809
:101AD000349084F83580216D1FE0E16B09B1204618
:101AE0008847606D00282BD0606DC00714D005209A
:101AF00084F835002068016821F001010160009838
:101B0000401C0090B84203D820680068C007F6D196
:101B100084F8349084F83580E16C002910D001B04D
:101B20002046BDE8F04308470168C905D5D40168DF
:101B300021F01001016084F8349084F83580CCE7FE
:101B4000BDE8F883DC0000202DE9F041044600F0F8
:101B50009FF906465CB1002584F83450022084F8D1
:101B600035002068016821F0010101600DE00120CD
:101B7000BDE8F08100F08CF9801B052805D92020F4
:101B80006065032084F83500F2E720680068C0072C
:101B9000F0D12268116820480140D4E901031843BC
:101BA000D4E903363343184363691843A3691843E0
:101BB000E3691843236A18430843616A042903D17F
:101BC000D4E90B1319430843106020684069666A22
:101BD00020F0070130460E43012704280CD1A06AEB
:101BE0000643E06A40B12046FFF720FA20B14020CA
:101BF000606584F83570BAE7206846612046FFF7D3
:101C000001FA94F85C203F2191408160656584F879
:101C100035700020ACE700003F8010F02DE9F04166
:101C20000446866D90F83400002501280DD001206F
:101C300084F8340094F835700020012F07D084F820
:101C4000340002252846BDE8F0810220FBE7022788
:101C500084F8357060652046FFF712FA94F85C103E
:101C60003F208840B0602068016841F016010160A3
:101C7000206C20B12068016841F0080101602068F3
:101C8000016841F001010160DCE7000070B5044625
:101C900000F0FEF80546601C02D0044800780444B9
:101CA00000F0F6F8401BA042FAD370BDD00000202F
:101CB0002DE9F84F00224FF0010803254FF00F0ED9
:101CC0000B6808FA02F42340A3426ED14E68012E3D
:101CD00005D0022E03D0112E01D0122E12D186680B
:101CE0004FEA420C05FA0CF7BE43CF6807FA0CF72F
:101CF000374387604668A6430C79C4F300149440C8
:101D000034434460C668570005FA07FC8C6826EA2D
:101D10000C06BC403443C4604C68022C01D0122C29
:101D200013D1D40800EB8404A346D4F820905407C0
:101D30004FEAD46A0EFA0AF629EA06090E6906FA8B
:101D40000AF646EA0906CBF8206004680E7924EA10
:101D50000C0406F00306BE40264306604C68E4000F
:101D60006FD53B4C266846F480462660246822F0F6
:101D7000030604F480440094364C3444A446D4F85A
:101D800008489607360F0EFA06F7BC43324FB842A2
:101D900001D100272EE0314FB84201D1012729E0BF
:101DA0002F4FB84202D1022724E04AE02D4FB8421B
:101DB00001D103271EE02C4FB84201D1042719E0BE
:101DC0002A4FB84201D1052714E0294FB84201D16A
:101DD00006270FE0274FB84201D107270AE0264F18
:101DE000B84201D1082705E0244FB84201D10927A4
:101DF00000E00A27B7402743CCF80878204E346823
:101E00004F689C43FF0300D51C4334601C4E361DB5
:101E100034684F689C43BF0300D51C433460184EA0
:101E2000083634684F689C43FF0200D51C43346079
:101E3000134E0C3634684F689C43BF0200D51C43D8
:101E40003460521C102AFFF43BAFBDE8F88F00004D
:101E500044380240003001400000024000040240CB
:101E600000080240000C0240001002400014024032
:101E700000180240001C02400020024000240240E2
:101E8000003C01400AB1816170470904FBE7000092
:101E90000148806870470000D000002090F83D2085
:101EA000202A01D002207047242280F83D200268B9
:101EB000136823F0010313600268536A23F01003D0
:101EC00053620268536A0B43536201680A6842F026
:101ED00001020A60202180F83D100020704790F830
:101EE0003D20202A01D002207047242280F83D2086
:101EF0000268136823F00103136003685A6A22F032
:101F00000F020A4391B2596201680A6842F0010265
:101F10000A60202180F83D100020704790F83D00B5
:101F20007047000070B5040025D094F83D000025EE
:101F300020B984F83C50204600F002FB242084F8AD
:101F40003D002068016821F00101016020680168FE
:101F500041F4004101602068016821F40041016002
:101F600000F090FC4D4A6168914201D84C4900E074
:101F70004C49884201D2012070BD4B492368B0FB17
:101F8000F1F15E6826F03F060E435E60636893429F
:101F900006D94FF4967359434FF47A73B1FBF3F1BA
:101FA0002368491C1E6A26F03F06314319626168A6
:101FB000914210D84900401EB0FBF1F2521CC2F30E
:101FC0000B02042A01D2042022E0B0FBF1F0401CF5
:101FD000C0F30B001CE0A268F2B301EBC10303EBFA
:101FE0000116431EB3FBF6F35B1C43F480431B0551
:101FF00049D092B301EBC10202EB0111401EB0FBCC
:10200000F1F0401CC0F30B0040F4804040F400406D
:102010002168CA694CF6FF739A431043C861D4E93A
:10202000071001432068026822F0C00211430160DA
:10203000D4E9030101432068826848F2FF339A43E0
:1020400011438160D4E9050108432168CA6822F080
:10205000FF021043C86001E00EE016E0206801684E
:1020600041F0010101602564202084F83D002563D2
:1020700084F83E50002070BD01EB4106431EB3FBC7
:10208000F6F35B1CB3E70120C2E701EB4101401E00
:10209000B0FBF1F0401CC0F30B00B7E7A0860100D5
:1020A00080841E0000093D0040420F002DE9FF4FD3
:1020B00081B089460446FFF7EBFE054694F83D00E3
:1020C0004FF0010820287DD11923012250492046D4
:1020D000009502F08DF9002874D194F83C00012895
:1020E00070D0012084F83C0020680168C90703D142
:1020F000016841F0010101602068016821F400617C
:102100000160242084F83D00002626644148E062F6
:102110004FF0011B20272068016841F480710160A5
:102120000095002259462046049B02F061F950B107
:1021300020680068C00502D54FF4007020640320B9
:1021400005B0BDE8F08F216809F0FE000861FFF7D7
:102150009FFE2168054648694969C0F34000C1F304
:1021600080214FF0A00A0FE0FFF792FE411B049878
:10217000814200D808B984F83DA0216848694969BE
:10218000C0F34000C1F3802194F83D20A02A02D082
:1021900008B90029E8D084F83D7020684169C94336
:1021A000890716D4016841F4007101602068416913
:1021B00080691923012216492046009502F018F97A
:1021C000B8B900E021E084F83D7084F83C6000205C
:1021D000B6E7016841F40071016021686FF4806026
:1021E0004861192301220A492046009502F000F9AE
:1021F00008B10120A4E7039808F1010880458AD3BB
:1022000084F83D7084F83C60F3E7022098E7000012
:10221000020010000000FFFF2DE9FF4F83B09A4637
:10222000DDE9119793460446DDF84080FFF730FE64
:10223000054694F83D00202870D1192301227149E8
:102240002046009502F0D4F80028F5D194F83C001F
:10225000012863D0012084F83C0020680168C90788
:1022600003D1016841F0010101602068016821F497
:1022700000610160222084F83D00402084F83E0087
:1022800000262664C4F82480A4F82A90608D208556
:102290005D48E062CDE9007553465A4620460499F0
:1022A00001F05AFF00287CD1208DD0B1012821D027
:1022B0000228206824D0416980690090208D03287D
:1022C00069D801282BD0514902283B464FF0000223
:1022D000009559D08846204602F08AF8002860D13F
:1022E0003CE02068416981690091016841F4007116
:1022F000016077E02068016821F480610160F0E707
:10230000016821F4806101602068016841F4006186
:102310000160206841698069009063E06FE02A46AF
:102320003946204602F0E3F898BB20680069616AEC
:1023300008704EE02068016841F400710160206877
:102340000069616A0870606A401C6062218D491EE4
:102350002185618D491E6185216838E0206801680A
:1023600021F48061016020680069616A0870606A18
:10237000401C6062208D401E2085608D401E60855F
:102380003B46002241460095204602F031F800B954
:10239000D0E706E0FFE72A463946204602F0A7F8D4
:1023A00018B1012007B0BDE8F08F20680069616AAC
:1023B0000870606A401C6062218D491E2185618D14
:1023C000491E618521684A69D24352070AD40969C6
:1023D0000170606A401C6062208D401E2085608D07
:1023E000401E6085208D00287FF468AF202084F88F
:1023F0003D0084F83E6084F83C600020D2E7022073
:10240000D0E70000020010000000FFFF0400010000
:102410002DE9FF4F83B09A46DDE9119793460446B4
:10242000DDF84080FFF734FD054694F83D00202894
:102430007FD11923012240492046009501F0D8FFA1
:10244000002876D194F83C00012872D0012084F84D
:102450003C0020680168C90703D1016841F001010F
:1024600001602068016821F400610160212084F886
:102470003D00402084F83E0000262664C4F82480F5
:10248000A4F82A90608D20852C48E062CDE9007583
:1024900053465A462046049901F0DCFE70B930E0FC
:1024A0002A463946204602F055F858B1206C0428D7
:1024B00004D12068016841F400710160012007B077
:1024C000BDE8F08F606A216800780861606A401C8E
:1024D0006062218D491E89B22185628D521E6285FE
:1024E00022685369DB435B070BD469B10078106144
:1024F000606A401C6062208D401E2085608D401EF9
:102500006085208D0028CBD12A463946204601F02F
:1025100049FF0028CAD154F83D0B016841F400710D
:102520000160202004F81E09E67766770020C6E7E0
:10253000FFE70220C3E70000020010000000FFFFD9
:1025400010B586B0044614216846FDF7A3FE134972
:102550002068884220D112480021026842F002021D
:102560000260006800F002000590C0200090122078
:10257000CDE9010103200390042004906946094835
:10258000FFF796FB06481030016841F40011016026
:10259000006800F40010059006B010BD0054004023
:1025A0003038024000040240024881680278114439
:1025B00081607047D00000200B4810B5016841F4DD
:1025C00000710160016841F480610160016841F4BB
:1025D00080710160032000F071F8002000F006F81F
:1025E00000F024F8002010BD003C024070B50D4DF5
:1025F00004464FF47A712878B1FBF0F00A49096873
:10260000B1FBF0F000F0D2FF48B9102C07D2002245
:102610002146501E00F032F800206C6070BD012091
:1026200070BD0000D0000020DC0000200B4882B00C
:10263000016841F480410160006800F4804000902E
:102640000648001F016841F080510160006800F0F9
:1026500080500090052002B000F030B844380240AD
:10266000002809DB00F01F02012191404009800091
:1026700000F1E020C0F8001170470000F0B40E4BEC
:102680001B680C46C3F30223C3F10705042D00D9D0
:102690000425191D072901D2002300E0DB1E0126B5
:1026A00006FA05F1491E214099409E40761E1640CB
:1026B0003143F0BC03F04EBF0CED00E0064900F0E2
:1026C000070208684FF6FF03184040EA0220034A59
:1026D00010430860704700000CED00E00000FA05B0
:1026E0002DE9F8431748016841F080510160006806
:1026F000154F00F08050012600903E64FFF7C8FBA4
:1027000005464FF47A78114C05E000BFFFF7C0FB97
:10271000401B40450DD86068C003F7D57E64FFF7C5
:10272000B7FB0546464607E0FFF7B2FB401BB04249
:1027300002D90320BDE8F88360688003F4D5002047
:10274000F8E700004038024000000E4200700040F0
:102750002DE9F0470E46050065D0DFF81481D8F862
:102760000000F7B200F00F00B04207D288F8007006
:10277000D8F8000000F00F00B04254D128683D4C5A
:10278000810712D5400703D5206840F4E05020604F
:102790002878000703D5206840F460402060206856
:1027A000A96820F0F000084320602878C0072DD0E9
:1027B000304968680839012812D0022813D003284C
:1027C00011D00968890700292DDA216821F0030159
:1027D00001432160FFF75CFB814641F2883A0EE03D
:1027E00009688903EFE709688901ECE7FFF750FB07
:1027F000A0EB0901514502D90320BDE8F08720680C
:10280000696800F00C00B0EB810FEFD1D8F8001030
:10281000404601F00F01B14207D90770006800F08F
:102820000F00B04201D00120E7E72878400705D526
:102830002068E96820F4E050084320602878000709
:1028400006D52068296920F4604040EAC100206074
:1028500000F038F82168084AC1F30311515CC84000
:102860000649086006480068FFF7C0FE0020C4E77C
:10287000003C024008380240D4E30008DC0000209D
:10288000D40000200448054900680968044AC1F3DF
:102890008221515CC8407047DC00002008380240AB
:1028A000E4E300080448054900680968044AC1F3E4
:1028B0004231515CC8407047DC00002008380240BB
:1028C000E4E30008154810B5006810F00C02144845
:1028D00013D01449042A0FD0082A0ED10F4C241FFC
:1028E0002268236802F03F025B0207D52068C0F32C
:1028F0008810A0FB010106E0084610BD2168C1F365
:102900008811A1FB00010023FDF76CFC2168C1F3D5
:102910000141491C4900B0FBF1F010BD08380240EC
:102920000024F40040787D012DE9F84F04006ED0BA
:102930002078DFF83C93C007A9F104054AD009F1DB
:1029400004000168C1F38101012908D00068C0F3C7
:10295000810002280AD1D9F80000400206D5286873
:10296000800337D560680028E1D033E06068B0F5B7
:10297000803F10D0B0F5A02F286810D020F4803010
:102980002860286820F4802028606068A8B1FFF7DC
:102990007FFA06460DE0286840F48030F4E740F402
:1029A00080202860F7E700BFFFF772FA801B6428D9
:1029B00073D828688003F7D50CE0FFF769FA06465C
:1029C00005E000BFFFF764FA801B6428F0D8286890
:1029D0008003F7D42078DFF89C8280074FF0000A4C
:1029E0003ED5A348001D016811F00C0F08D0006807
:1029F000C0F3810002280BD1D9F80000400207D4AF
:102A00002868800716D5E068012800D112E02BE184
:102A1000E068B8B10120C8F80000FFF739FA0646AF
:102A200005E000BFFFF734FA801B0228C0D82868F1
:102A30008007F7D52868216920F0F80040EAC10036
:102A400028600DE0C8F800A0FFF722FA064604E06F
:102A5000FFF71EFA801B02281FD828688007F7D4CA
:102A60002078000722D5824E83486169703671B1A3
:102A700001210160FFF70CFA074604E0FFF708FAAE
:102A8000C01B022809D830688007F7D50EE0C0F8CF
:102A900000A0FFF7FDF9074605E082E0FFF7F8F92F
:102AA000C01B02287DD830688007F7D42078400703
:102AB00068D5DFF8BCB100270BF13C0BDBF8000058
:102AC000C0000BD4DBF8001041F08051CBF80010AF
:102AD000DBF80000012700F080500090674E30685E
:102AE000C00510D4306840F480703060FFF7D0F932
:102AF000009005E0FFF7CCF90099401A022850D861
:102B00003068C005F6D55A4EA0686C3601280FD043
:102B10000528306810D020F001003060306820F0C7
:102B200004003060A068B8B1FFF7B2F900900FE080
:102B3000306840F00100F4E740F004003060F7E74F
:102B4000FFF7A6F90099411A41F28830814266D810
:102B500030688007F4D50EE0FFF79AF9009007E09F
:102B6000FFF796F90099411A41F28830814256D810
:102B700030688007F4D42FB1DBF8001021F08051C9
:102B8000CBF80010A069C8B33949091D0968C1F321
:102B9000810102294AD00228504607D0C8F86000B7
:102BA00000E03CE0FFF774F904463BE04746C8F814
:102BB0006000FFF76DF9064605E000BFFFF768F912
:102BC000801B02282BD828688001F7D4D4E907019C
:102BD0000843A16A2A4A490802EB0141626A41EAB4
:102BE0008211084394F82C1040EA0161C9F80010E2
:102BF00001203866FFF74CF9044606E036E000BFD6
:102C0000FFF746F9001B022809D828688001F7D58C
:102C10002CE000BFFFF73CF9001B022802D903207B
:102C2000BDE8F88F28688001F4D41FE00128F7D0B0
:102C3000D9F80000E26900F48001914214D1226ABF
:102C400000F03F0191420FD147F6C071626A014026
:102C5000914209D1A26A00F44031914204D1E16A63
:102C600000F07060884201D00120D9E70020D7E74A
:102C70000438024000004742800E47420070004086
:102C80000000FFFF10B5FEF765F810BD2DE9FE430B
:102C9000044603200F4684F83400606C03285AD0A1
:102CA000B7F5805F57D04FF4006600254FF080687D
:102CB000B7421CD1009501950021206802F0CAFAA4
:102CC000800121D46946204602F0B8FE98BB0198E5
:102CD000400332D5B4F850000104206802F0F6FA3F
:102CE00048BB0221206822E0A06B284327E01FB1E7
:102CF000A06B40F0006022E0009501950021206863
:102D000002F0A8FA800101D53546EDE76946204674
:102D100002F094FE78B90198C0030ED5B4F85000C3
:102D20000104206802F0D2FA28B90021206802F0DC
:102D30001AFB0028D8D00546D6E74546D4E7A0635D
:102D4000A06B012558B121680C48886384F8345081
:102D50000120BDE8FE83A06B40F08050EFE7211D0D
:102D6000D4E905060EC90097CDE90106206802F0F6
:102D70007BFA84F834500020EBE70000FF054000A8
:102D800070470000F0B5426E920F0A70426EC2F3B7
:102D900083624A70426EC2F301628A70426E120C04
:102DA000CA70B0F86420120A0A7190F864204A715F
:102DB000826E120DCA80826EC2F303420A72B0F8AC
:102DC0006820C2F3C0324A72B0F86820C2F3803281
:102DD0008A72B0F86820C2F34032CA72B0F8682034
:102DE000C2F300320A7300264E73426C4FF4007532
:102DF000012462B1012A3AD0026847499163816B8C
:102E000041F08051816380F834400120F0BDB0F87A
:102E10006820C36E9205120D42EA93720A61C26E77
:102E2000C2F3C2620A75C26EC2F302624A75C26E12
:102E3000C2F342528A75C26EC2F38242CA75C26E32
:102E4000C2F3C2320A760A69521C42650B7E03F055
:102E500007039B1C9A4042650B7A03F00F0704FAA4
:102E600007F383655B0A5A43C0E917250EE090F823
:102E70006820C36E9206920A42EA13420A610A6906
:102E8000521C92024265C0E91652056630F86C2F5A
:102E9000C2F3803201F8192F0288C2F3C6124A70B9
:102EA000027802F07F028A704268D20FCA704268CC
:102EB000C2F341720A714268C2F382624A71426887
:102EC000C2F383528A714268C2F34052CA710E72D1
:102ED0004268C2F300424A728288C2F3C0328A72E8
:102EE0008288C2F38032CA728288C2F340320A7387
:102EF0008288C2F300324A738288C2F381228A73C5
:102F00008288C2F30122CA730079C0F346000874B4
:102F10004C740020F0BD0000FF054000426C0A60C8
:102F2000826C4A60C26C8A60026DCA60426D0A613E
:102F3000826D4A61C26D8A61006EC861002070476F
:102F400070B50446B0F8500000250104206802F076
:102F500014FB18B1A16B0143A16304E000212068B8
:102F600002F078F90546C5F3432070BDF8B5056B4E
:102F700004460068416B09041BD5290719D5D4E91B
:102F80000A56002E14D00027206802F087F905F8B1
:102F9000010B010A05F8011B010C05F8021B000ECC
:102FA000361F7F1C05F8010C082FEDD3C4E90A5623
:102FB000F8BD416B4FF00006C9054FF0010744D53D
:102FC000390281632068C16B4CF23A329143C1638C
:102FD0002068C16A21F00101C16228071DD515F0E2
:102FE000220F09D0206802F0F9FA28B1A16B014341
:102FF000A1632046FFF7C4FE216840F23A5088637F
:1030000084F834702663A80703D0204600F02CFA19
:10301000F8BD204600F02CFAF8BD2806FCD5A8061D
:1030200009D5206802F0DAFA28B1A16B0143A16347
:103030002046FFF7A5FEA807EED12068C16A21F05F
:103040000801C16284F83470E3E7416B490424D578
:10305000290722D5D4E90856002EDDD05FF00007FD
:1030600015F8010B009015F8011B361F40EA0120EE
:10307000009015F8021B40EA0140009015F8011C71
:1030800040EA016000906946206802F01AF97F1C4E
:10309000082FE5D3C4E90856F8BD416B40F23A2247
:1030A0001142F9D0416B890703D5A16B41F00201B0
:1030B000A163416B090703D5A16B41F00801A1632E
:1030C000416B890603D5A16B41F02001A163416BDF
:1030D000C90603D5A16B41F01001A163416B8905BD
:1030E00003D5A16B41F00801A16340F23A718163FD
:1030F0002068C16B40F23A329143C163206802F00C
:103100006DFAA16B0843A063280706D584F83470D4
:1031100026632046FFF734FEF8BD2806FCD515F0DF
:10312000300F0CD0E16B11480865E06BFEF727FC0F
:103130000028F1D0E06BBDE8F84002F05DBCA807C4
:103140000CD0216C0A480865206CFEF718FC00289A
:10315000E2D0206CBDE8F84002F025BCA66384F8FC
:10316000347026632046FFF78DFDF8BDF95900083D
:10317000A759000870B504000ED094F8340000255B
:1031800018B92577204600F03BF8032084F8340076
:10319000204600F00BF808B1012070BDA56325633F
:1031A000012084F83400002070BD0000FEB5002529
:1031B000044676200095CDE9015029460B460A4683
:1031C000206802F051F808B10120FEBD0B4E46F810
:1031D000A05F206802F05AF801253560204602F011
:1031E0000FFD20B9204602F093FC0028EDD084F8B2
:1031F0003450A16B0143A163E6E700000080254243
:103200002DE9F04F87B0054614216846FDF742F8D6
:103210004349286888427DD14248002400684149DA
:1032200040F400600860086800F4006005903D48C4
:103230001438016841F004010160016801F00401E3
:103240000591016841F00801016000684FF0020833
:1032500000F0080005904FF4F850CDE9000802AAEC
:1032600003274FF00C0982E8900269462E48FEF7CA
:103270001FFD02AA042682E89002CDE90068694693
:103280002A48FEF715FDDFF8AC80294940464FF08B
:10329000006902C04FF4806BE0E802948914E0E812
:1032A000024B4FF0200AA0E81204D0C04F02046085
:1032B0004046C8F83070FEF747FC08B1FEF7EAF95F
:1032C0001C4C1B48C5F8408060344830C8F8385062
:1032D000C4E900094020A0600020C4E9030B4FF4BA
:1032E0008051C4F81CA0C4E90510C4E908060321F4
:1032F0002763C4E90A102046FEF726FC08B1FEF752
:10330000C9F9EC63012203213120A563FFF7B6F967
:10331000312000E001E0FFF7A3F907B0BDE8F08F2E
:10332000002C01404438024000080240000C0240DA
:1033300058640240604300202DE9F04786B01F46E4
:103340000446154639B194F83400012807D002200C
:1033500006B0BDE8F087A06B40F0006008E00020F8
:10336000A063E36DEA199A4204D9A06B40F00070A3
:10337000A0636FE0032284F8342022688246D06282
:103380002268D36B40F22A363343D363236C324A2C
:103390004FEA4729DA63236C304ADA64226C4FEA39
:1033A0009903106520680A46266C00F180013046BA
:1033B000FEF734FCDFF8A880012660B12068C16BFD
:1033C00021F49571C1632168C1F83880A06B40F089
:1033D0008040A06311E023480660606C012800D0A3
:1033E0006D024FF40071206801F0A4FF40B1226823
:1033F000C2F83880A16B0143A16384F8346029E0EE
:103400004FF0FF30CDE90009902002900220059690
:10341000CDE9030AD1466946206801F005FF012F76
:1034200006D9822020632946206802F017F805E0BB
:10343000812020632946206802F029F8002887D0DF
:103440002268C2F83880A16B0143A16384F834601C
:10345000C4F8309001207BE7655900080159000845
:10346000FF0540008C85254210B5FDF7B5FC10BD69
:1034700010B5FDF7C5FC10BD2DE9FF4F87B0044620
:1034800008981F46164638B194F83400012807D032
:1034900002200BB0BDE8F08FA06B40F0006008E0A8
:1034A0000025A563E16DF019884204D9A06B40F0B6
:1034B0000070A06361E0032084F834002068C562D6
:1034C0002068C16B40F21A2A41EA0A01C163E16B2C
:1034D0003248C863E16B3248C864E06B0565606CD4
:1034E000012800D076024FF40071206801F022FF1D
:1034F000DFF8B0904FF0010840B12268C2F8389070
:10350000A16B0143A16384F8348036E04FF0900B47
:10351000012F06D9A02020633146206802F078F8F8
:1035200005E0C4F830B03146206802F08AF840B1B6
:103530002268C2F83890A16B0143A16384F83480FB
:103540001AE019484646C0F8008022687F02BB088E
:10355000E06B80320899FEF761FB80B12068C16B97
:1035600021EA0A01C1632168C1F83890A06B40F0DC
:103570008040A06384F834602563012089E74FF020
:10358000FF30CDE90007CDE902B5CDE90456694623
:10359000206801F049FE00207BE70000EB5900089D
:1035A00001590008FF0540008C85254210B5401EDA
:1035B000B0F1807F01D3012010BD4FF0E0246061A5
:1035C0000F21601702F0C6FF0020A06107202061D4
:1035D000002010BD7047704770B590F83C20012A5C
:1035E00032D0012480F83C40022280F83D2003685C
:1035F0005A689D6822F070060A6832435A60134B7D
:1036000002689A4214D0B2F1804F11D0104B9A4206
:103610000ED0104B9A420BD00F4B9A4208D00F4B52
:103620009A4205D00E4B9A4202D00E4B9A4204D1D8
:10363000496825F080031943916080F83D400021DE
:1036400080F83C10084670BD022070BD00000140AB
:103650000004004000080040000C0040000401404D
:10366000004001400018004010B5040003D094F859
:103670003D0010B107E0012010BD002084F83C009F
:10368000204600F00DF8022084F83D00211D20683E
:1036900002F060FC012084F83D00002010BD000015
:1036A00008B50068B0F1804F12D10A48016841F0B6
:1036B000010101600068002200F001000090114645
:1036C0001C20FEF7DBFFBDE808401C20FEF7C8BF4A
:1036D00008BD0000403802400168CA6842F001029B
:1036E000CA600068816801F00701062903D00168FB
:1036F00041F0010101600020704770B5044690F868
:103700003C00012817D0012584F83C50022084F8A1
:103710003D002068826822F0770222F47F428260B6
:103720000868502830D00DDC20284DD005DC98B337
:1037300010283BD148E0022070BD302844D04028FA
:1037400034D139E0602828D0702806D0B0F5805FE9
:103750002CD0B0F5005F29D10AE0CB68D1E9012176
:10376000206802F05BFC2068816841F0770109E085
:10377000CB68D1E90121206802F050FC2068816803
:1037800041F48041816011E0CA684968206802F014
:1037900057FC5021206807E016E0CA684968206895
:1037A00002F05FFC6021206802F042FC84F83D508A
:1037B000002084F83C0070BDCA684968206802F0A7
:1037C0003FFC40212068EFE7226801461046EBE706
:1037D000704770B50446006801694FF00005C943A1
:1037E000890715D4C168C943890711D4E91E01614D
:1037F00001202077206880698007204602D0FFF7EB
:10380000E7FF04E000F098F8204600F096F82577EE
:1038100020680169C943490717D4C168C9434907EA
:1038200013D46FF0040101610220207720688069C1
:1038300010F4407F204602D0FFF7CAFF04E000F0FA
:103840007BF8204600F079F8257720680169C943A4
:10385000090716D4C168C943090712D46FF00801DB
:103860000161042020772068C0698007204602D0CB
:10387000FFF7AEFF04E000F05FF8204600F05DF8CF
:10388000257720680169C943C90617D4C168C943AF
:10389000C90613D46FF01001016108202077206859
:1038A000C06910F4407F204602D0FFF791FF04E08A
:1038B00000F042F8204600F040F8257720680169C2
:1038C000C943C90708D1C168C943C90704D1891EC2
:1038D0000161204600F032F820680169C9430906F9
:1038E00009D4C168C943090605D46FF0800101619C
:1038F0002046FFF76FFE20680169C943490609D4D5
:10390000C168C943490605D46FF0400101612046F2
:1039100000F03AF820680169C94389060BD4C168F0
:10392000C943890607D46FF0200101612046BDE834
:103930007040FFF750BE70BD7047704710B500680B
:10394000B0F1804F1DD10F4CE07A401CC0B2E07244
:10395000012802D1E17908F0EBF9E07A022802D1DE
:10396000217A08F0E5F9E07A032802D1617A08F0BB
:10397000DFF9E07A042804D1A17A08F0D9F900200F
:10398000E07210BD98000020704710B50446006832
:10399000416994F83920C1F3C011212A0BD151B1EA
:1039A000416921F080014161206B08B1FDF7A0FF62
:1039B000204602F0E5FB2068416994F83A20C1F303
:1039C0008011222A0BD151B1416921F0400141619E
:1039D000606B08B1FDF78CFF204602F0C3FB0020AE
:1039E00010BD704770B5026804461068D16853690D
:1039F00010F00F0F52D003F0010501F490762E4322
:103A00005FD0C20705D0CA0503D5E26B42F00102C0
:103A1000E263420705D5DA0703D0E26B42F0020207
:103A2000E263820705D5DA0703D0E26B42F00402B5
:103A3000E263020707D501F020022A4303D0E26BBC
:103A400042F00802E263E26B002A33D0800604D51C
:103A5000880602D5204602F09CFB20684069E16B95
:103A6000C0F38010090700D428B3204602F07AFB87
:103A70002068416949061AD5416921F04001416138
:103A8000606BA0B11B490165606BFDF778FF0028F2
:103A900010D0606B016DBDE870400847830610D5FB
:103AA0008B060ED52046BDE8704002F072BB204662
:103AB000FFF797FF70BD2046FFF793FF0020E063FC
:103AC00070BD030606D50B0604D52046BDE8704040
:103AD00002F03EBC4006F3D54806F1D5D168204639
:103AE00021F04001D160202184F8391000F04DFA16
:103AF00070BD0000C560000870B5040004D094F8E3
:103B00003900002510B106E0012070BD84F838505E
:103B1000204600F023F8242084F839002068C1688A
:103B200021F40051C160204602F07EFB206801694B
:103B300021F4904101612068416921F02A0141612D
:103B40002068C16841F40051C160E563202084F819
:103B5000390084F83A00002070BD00002DE9F04FD4
:103B600087B0054614216846FCF794FBA249DFF8AC
:103B700084822E680024A04A1039032002230827DB
:103B8000DFF878924FF0010C464521D1146844F4D7
:103B900000241460126802F4002205920A6842F0C0
:103BA00001020A6009688DE8091001F00101CDE900
:103BB0000471039069464846FEF77AF80322022111
:103BC0003420FEF75BFD3420FEF74AFD8C4862E0AE
:103BD000DFF830824FF0C00B464537D1166846F00B
:103BE00080461660126802F0804205920A6842F030
:103BF00020020A600968CDE9024001F02001CDE908
:103C00000471CDE900B369467F48FEF751F8804E54
:103C10007E4830604FF02060C6E901044FF48060B8
:103C2000C6E903407461B461F46134623046746281
:103C3000FDF78AFF08B1FDF72DFD6E630022032119
:103C40005220B563FEF71AFD522058E0714DAE4286
:103C500029D1156845F000451560126802F0004250
:103C600005920A6842F010020A6009688DE819009E
:103C700001F01001CDE90471039069466648FEF732
:103C800017F8022211465320FEF7F8FC5320FEF7E6
:103C9000E7FC5B4880300068C16841F02001C160EA
:103CA00007B0BDE8F08FDFF87481DFF84CA107257D
:103CB0000AF1040A464525D1DAF8006046F01006FC
:103CC000CAF80060DAF8002002F0100205920A68D3
:103CD00042F001020A60096801F0010105914FF408
:103CE000C0618DE81A00CDE9030569464846FDF735
:103CF000DFFF012211462520FEF7C0FC2520FEF73C
:103D0000AFFCCDE7DFF81881464523D1146844F4B1
:103D100000341460126802F4003205920A6842F01E
:103D200001020A60096801F0010105910C218DE88A
:103D30000A10CDE9030569464846FDF7B9FF02229E
:103D400001212620FEF79AFC2620FEF789FC304848
:103D5000C038A0E7DFF8CC80464524D1146844F48D
:103D600080241460126802F4802205920A6842F0EE
:103D700002020A60096801F0020105914FF44061F6
:103D80008DE80A10CDE9030569462748FDF790FF45
:103D9000032201212720FEF771FC2720FEF760FC9B
:103DA0001B48803877E7214A9642AAD1DAF80050BA
:103DB00045F02005CAF80050DAF8002002F0200291
:103DC00005920A6842F004020A600968CDE90240DF
:103DD00001F00401CDE90471CDE900B3694614484E
:103DE000FDF766FF002211464720FEF747FC4720FB
:103DF00085E70000004C00404038024000000240CF
:103E000060440020007800400014024058600240E6
:103E100020460020007C00400010024000100140BD
:103E200000440040004800400004024000140140EB
:103E300000080240F8B5044690F83A0020283CD12A
:103E4000C1B3BAB394F83800012836D0012084F801
:103E50003800A162A2850025E563222084F83A009B
:103E6000636B1748D863636B16481864636B164816
:103E7000D864606B134605650846666B2168024688
:103E80003046091DFDF7CAFE2068016841680091AF
:103E900084F83850C16841F48071C160206841697C
:103EA00041F0010141612068416941F040014161F7
:103EB0000020F8BDFFE70120FBE70220F9E7000042
:103EC0001F6100085B610008D560000870477047FB
:103ED0002DE9F843044690F839001F4616460D4672
:103EE000202850D1B5B1AEB194F8380001284AD09D
:103EF000012084F838004FF00008C4F83C802120ED
:103F000084F83900FDF7C4FFA6848146E68484F86E
:103F1000388026E00120BDE8F883E08C401EE08474
:103F2000A0684B46B0F5805F4FF000024FF0800173
:103F30002046009703D002F03CFAE8B90DE002F009
:103F400038FAC8B928882168C0F308004860206999
:103F500008B16D1C05E0AD1C03E0216815F8010BEC
:103F60004860E08C0028D8D14B46002240212046F2
:103F7000009702F01EFA08B10320CCE7202084F855
:103F800039000020C7E70220C5E77047FEE70000C0
:103F90002DE9F04100252DED028B884606462C4682
:103FA0009FED128B1AE0371B781EFCF72CFB41ECBF
:103FB000110BB0EE480AF0EE680A02F0F5FC51EC85
:103FC000100BFCF75DFBBA000146121F28FA02F045
:103FD00000F00F0000FB0155641CE4B2B442E2D3D0
:103FE000BDEC028B2846BDE8F08100000000000017
:103FF000000024400EB54FF47A738DE80D000A4698
:104000000123A0210148FEF707F90EBD88420020D8
:104010002DE9F041064611F00F000C4602F00F01A9
:10402000C0F11007C2F3071588460FD07DB1D01B31
:10403000C0F3071500F00F0847B33A462146304653
:1040400000F04EF8E019C4B23E441FE04DB90A46F4
:104050000EE010222146304600F042F81034E4B25F
:1040600010366D1EEDB2F4D2B8F1000012D0024647
:1040700021463046BDE8F04100F032B8102221461A
:10408000304600F02DF81034E4B210366D1EEDB25B
:10409000F4D2E9E7BDE8F0813EB501236422CDE921
:1040A000000302920A46A0210C48FEF7B1F904462B
:1040B0000A48FDF733FF2028FAD14FF496752A46B7
:1040C0002B46A0210548FDF7F1FF0328F7D0034850
:1040D000FDF724FF2028FAD120463EBD884200206B
:1040E0003EB564238DE80D000A460123A0210D484A
:1040F000FEF78EF904460B48FDF710FF2028FAD191
:104100004FF496752A462B46A0210648FDF7CEFFB0
:104110000328F7D00348FDF701FF2028FAD12046F5
:104120003EBD00008842002001684A69D243520522
:104130000FD46FF480624A61002140F8301F2022C2
:1041400042738173026942F004020261017301202B
:1041500070470020704700002DE9F84F04460068C2
:1041600089460B9D01689846174641F480610160BD
:104170002068016841F48071016000954FF0011BD7
:104180000022594620460A9B00F032F94FF4007A8B
:1041900040B120680068C00501D5C4F840A00320E4
:1041A000BDE8F88F216809F0FE0008612B46284918
:1041B00020460A9A00F050F9F0BB206841698069F6
:1041C00000902A4620460A9900F0C4F940B1206CBC
:1041D00004283AD12068016841F40071016034E09C
:1041E000FEB2B8F1010F09D02168380A08612A46E9
:1041F00020460A9900F0AEF90028E8D1206806614F
:104200002A4620460A9900F0A5F90028DFD1206847
:10421000016841F4807101600095002259462046F2
:104220000A9B00F0E5F80028B3D1216809F0FF00EF
:1042300040F00100086100E007E02B4604492046F9
:104240000A9A00F009F90028AAD00120A8E7000086
:10425000020001002DE9F843044600680D46DDE93F
:10426000089701689846164641F4807101604B46F4
:1042700000224FF001112046009700F0B9F848B134
:1042800020680068C00502D54FF400702064032048
:10429000BDE8F883216805F0FE0008613B464A4608
:1042A0001549204600F0D8F888B92068416980692E
:1042B00000903A464946204600F04CF948B1206C3F
:1042C000042804D12068016841F4007101600120D4
:1042D000DEE7F5B2B8F1010F09D02168300A0861B4
:1042E0003A464946204600F035F90028E7D12068D3
:1042F00005610020CCE700000200010010B50E4C63
:10430000012211462046FDF7BDFD01220221204673
:10431000FDF7B8FD00F044F9002201212046FDF729
:10432000B1FD00F03DF9002202212046FDF7AAFD73
:10433000BDE8104000F034B90014024010B50A4C3A
:10434000002201212046FDF79DFD01220221204689
:10435000FDF798FD00F024F920460122BDE8104049
:104360001146FDF78FBD00000014024010B50C4C43
:10437000012211462046FDF785FD00F011F90122CA
:1043800002212046FDF77EFD00F00AF900220221FD
:104390002046FDF777FDBDE8104000F001B90000B0
:1043A0000014024070B516460D4604460DE0204646
:1043B000FFF7BAFE08B1012070BD681C05D0FDF7FB
:1043C00067FD801BA84207D835B120684069C0430B
:1043D0004007ECD4002070BD002044F8300F2021AD
:1043E0006173A073216941F0200121612073E2E72C
:1043F0002DE9F0471E4690460D460446C1F3074797
:10440000DDF8209008E0701C06D0FDF741FDA0EB20
:104410000900B0420FD876B12068012F18D080690A
:1044200025EA00000004000C14D000214145EAD028
:104430000020BDE8F087002044F8300F2021617390
:10444000A073216941F02001216120730120F0E770
:104450004069E5E70121E9E72DE9F0479A469146F1
:104460000E46044600254FF02008C1F3074725E01B
:1044700020684069C043400514D42068016841F4B5
:104480000071016021686FF480604861256384F8E1
:104490003D8084F83E50206C40F00400206484F895
:1044A0003C501FE0B9F1FF3F08D0FDF7F1FCA0EB55
:1044B0000A0149450CD8B9F1000F09D02068012F35
:1044C00013D0806926EA00000004000C0BD0CFE76F
:1044D00044F8305F84F80D80A573206940F0200017
:1044E000206125730120BDE8F0874069EAE72DE9E6
:1044F000F041002590460E460446202717E040690B
:10450000C043C0060CD454F8301B6FF01000486153
:1045100044F810596777A577206A2062257717E05D
:10452000FDF7B6FCA0EB0800B04208D83EB1206809
:104530004169C9434906E2D40020BDE8F08144F84E
:10454000305F6773A573206940F0200020612573F8
:104550000120F2E770B516460D4604460DE02046F0
:10456000FFF7E2FD08B1012070BD681C05D0FDF722
:104570008FFC801BA84207D835B120684069C04332
:104580000006ECD4002070BD002044F8300F20213C
:104590006173A073216941F0200121612073E2E77A
:1045A0001420401EC0B2FCD270470000154808B568
:1045B000016841F400110160016801F400110091EB
:1045C000016841F4800101600068002200F480006D
:1045D000009011460E20FEF751F80E20FEF740F82D
:1045E000002211463B20FEF749F83B20FEF738F841
:1045F000002211464520FEF741F8BDE8084045205D
:10460000FEF72EB83038024010B503490348FDF7D5
:1046100043F80349087010BDED000020ECE30008EA
:10462000EC0000202DE9F04F87B014216846FBF71D
:1046300031FE5A480024016841F020010160016800
:1046400001F020010591016841F0800101600168DD
:1046500001F080010591016841F0010101600168EC
:1046600001F001010591016841F04001016001681C
:1046700001F040010591016841F0100101600168FD
:1046800001F010010591016841F00201016001682B
:1046900001F002010591016841F004010160016827
:1046A00001F004010591016841F008010160006812
:1046B000DFF8ECA000F0080005900122032150462D
:1046C000FDF7E0FBDFF8DCB0012210215846FDF7D2
:1046D000D9FB4FF46048002241465046FDF7D2FB1B
:1046E000002203213048FDF7CDFB4FF4FC59002296
:1046F00049462E48FDF7C6FB00224FF484412C4862
:10470000FDF7C0FB0326112701250096CDE90175B1
:10471000694650460395FDF7CBFA1020CDE9000518
:10472000CDE9024669465846FDF7C2FACDE9025482
:10473000CDE9008769465046FDF7BAFACDE9005742
:10474000CDE9025469461848FDF7B2FA02200090FC
:10475000CDE90154694614480394FDF7A9FACDF850
:104760000090CDE90154694610480394FDF7A0FA82
:10477000A8030090CDE9015469460D480394FDF764
:1047800097FA6802CDE90005CDE902466946084876
:10479000FDF78EFA07B0BDE8F08F00003038024018
:1047A00000140240000002400018024000100240C5
:1047B00000040240144810B51249016013494160D9
:1047C00000214FF480428160C0E9031241618161A0
:1047D000C1610162FDF7A6FB08B1FCF75BFF002198
:1047E0000948FDF75BFB08B1FCF754FF00210648C0
:1047F000FDF775FB002803D0BDE81040FCF74ABF69
:1048000010BD00000054004088420020801A0600BD
:10481000064805490160002141608160C160016175
:104820004161816170470000002C0140DC420020A2
:1048300010B586B0002416480094019402940394A5
:1048400004944FF080410594016040F28331C0E947
:1048500001146321C0E903148461FEF705FF08B168
:10486000FCF718FF4FF48050009069460848FEF7A7
:1048700044FF08B1FCF70EFF049404A90448059412
:10488000FEF7AAFE002801D0FCF704FF06B010BD19
:10489000204400200C4810B50A4901604FF4E13172
:1048A0004160002181600C22C160C0E90412816175
:1048B000C161FFF721F9002803D0BDE81040FCF7E3
:1048C000E9BE10BD004C0040604400200C4810B50B
:1048D0000A4901604FF4E1314160002181600C22FE
:1048E000C160C0E904128161C161FFF705F90028C8
:1048F00003D0BDE81040FCF7CDBE10BD00780040ED
:10490000A04400200C4810B50A4901604FF4E13181
:104910004160002181600C22C160C0E90412816104
:10492000C161FFF7E9F8002803D0BDE81040FCF7AB
:10493000B1BE10BD007C0040E04400200C4810B522
:104940000A4901604FF4E1314160002181600C228D
:10495000C160C0E904128161C161FFF7CDF8002890
:1049600003D0BDE81040FCF795BE10BD001001401B
:10497000204500200C4810B50A4901604FF4E13190
:104980004160002181600C22C160C0E90412816194
:10499000C161FFF7B1F8002803D0BDE81040FCF773
:1049A00079BE10BD00440040604500200C4810B5A1
:1049B0000A4901604FF4E1314160002181600C221D
:1049C000C160C0E904128161C161FFF795F8002858
:1049D00003D0BDE81040FCF75DBE10BD00480040AC
:1049E000A04500200C4810B50A4901604FF416514B
:1049F0004160002181600C22C160C0E90412816124
:104A0000C161FFF779F8002803D0BDE81040FCF73A
:104A100041BE10BD00140140E0450020FEE7034602
:104A20000DE002782A2A03D0202A01D37A2A01D95C
:104A3000FF2070472C2A01D1491EC9B2401C002911
:104A4000EFD1C01AC0B270472DE9F0410D462DEDEF
:104A5000068B044682B08EA12846FBF726FC06464C
:104A60008DA12846FBF721FC8C4900B1012008707C
:104A700009213046FFF7D3FF42F210774FF0640868
:104A8000FF2816D03044694600F016F90546B0FB01
:104A9000F7F0E0704146B5FBF1F0B0FBF1F208FB36
:104AA0001200B5FBF8F2A07008FB125000F5FA6096
:104AB000208001213046FFF7B2FFFF2824D0304488
:104AC000694600F0F9F805469DF800100A2000F04C
:104AD000EBF8B5FBF0F54146B5FBF1F2B5FBF7F0AD
:104AE000B2FBF1F30830C0B208FB132220716271EF
:104AF000B5FBF8F208FB1251A171182804D318383D
:104B00002071E078401CE07003213046FFF787FFFA
:104B10009FED639BFF283CD03044694600F0CCF801
:104B200005469DF80000801CC1B20A2000F0BCF8C8
:104B3000FBF77AFD41EC180B2846FBF775FD53ECAB
:104B4000182BFBF7F1FC41EC180B18EE907A08EEED
:104B5000907AFBF776FDFBF756FD08EE907A53EC62
:104B6000182BFBF76CFC53EC192BFBF7DDFC08EE64
:104B7000907A41EC1A0B51EC180BFBF762FDFBF736
:104B800042FD53EC1A2BFBF7B6FBC4F80700C4F840
:104B90000B1004213046FFF742FFFF2801D0305CA4
:104BA000E07305213046FFF73AFFFF283AD0304442
:104BB000694600F081F805469DF80000801CC1B2EE
:104BC0000A2000F071F8FBF72FFD41EC180B284686
:104BD000FBF72AFD53EC182BFBF7A6FC41EC180B56
:104BE00018EE907A08EE907AFBF72BFDFBF70BFDA1
:104BF00008EE907A53EC182BFBF721FC53EC192BA1
:104C0000FBF792FC08EE907A41EC190B51EC180B73
:104C1000FBF717FDFBF7F7FC53EC192BFBF76BFBCE
:104C20002061616106213046FFF7F9FEFF2801D0BF
:104C3000305C207607213046FFF7F1FEFF2804D0D4
:104C40003044694600F038F8054600EE105A082155
:104C5000B8EE400A10EE100AC4F81A003046FFF70A
:104C6000DEFEFF2806D03044694600F025F80A2110
:104C700090FBF1F500EE105AB8EE400A10EE100A63
:104C8000C4F81E0002B0BDEC068BBDE8F081000048
:104C90004750524D430000004100000099000020A1
:104CA000333333333333E33F0246012000E05043D4
:104CB000491EC9B2FBD270472DE9F04F4FF0000AF0
:104CC0008B468046D14655465446564601782D2996
:104CD00002D146F00206401C01782C2908D02A296E
:104CE00006D02E290AD030390A290AD300252C46AD
:104CF000B00701D508F10108002718E046F00106C9
:104D0000401CF10702D0641CE4B201E06D1CEDB25E
:104D1000401CDBE7E81B401EC1B20A20FFF7C4FFBE
:104D200018F80710303900FB01AA7F1CFFB2AF4210
:104D3000F0D3052C00D905248BF8004000270EE0A5
:104D4000E01B401EC1B20A20FFF7AEFFEA1902EBDA
:104D500008014978303900FB01997F1CFFB2A74256
:104D6000EED321460A20FFF79FFF0AFB0090B10710
:104D700000D54042BDE8F08FFEE7000030B40021CE
:104D8000084B0A465FF0000003EBC004401CC0B2B1
:104D900062548028F8D3491CC9B20829F2D330BC28
:104DA00000F0BAB81801002030B40121084B0022ED
:104DB0005FF0000003EBC004401CC0B262548028C6
:104DC000F8D3491CC9B20829F2D330BC00F0A4B80A
:104DD0001801002030B1012807D100215FF0A700A1
:104DE00000F006BA0021A620FAE7704710B558B1C6
:104DF000012810D10021C02000F0FAF90021A020E4
:104E0000BDE8104000F0F4B90021C82000F0F0F92E
:104E10000021A120F4E710BD30B5CC0801F0070354
:104E200001259D40EBB2064D05EBC005C808285C86
:104E30000AB1184302E063EA0000C043285530BDC0
:104E40001801002010B50021FD2000F0D1F900214B
:104E5000122000F0CDF90021AE2000F0C9F90021A8
:104E6000D52000F0C5F90021A02000F0C1F90021F3
:104E7000A82000F0BDF900213F2000F0B9F9002181
:104E8000D32000F0B5F90021084600F0B1F9002167
:104E9000402000F0ADF90021A12000F0A9F9002187
:104EA000C82000F0A5F90021DA2000F0A1F90021C6
:104EB000122000F09DF90021812000F099F90021D5
:104EC0007F2000F095F90021D92000F091F9002110
:104ED000822000F08DF90021DB2000F089F900210B
:104EE000342000F085F90021A42000F081F9002190
:104EF000A62000F07DF9FFF741FF0021AF2000F070
:104F000077F90020FFF766FF0120FFF76FFFBDE88C
:104F1000104000F001B8000070B5184E002400BF2A
:104F200004F1B000C0B2002100F062F9002108468F
:104F300000F05EF90021102000F05AF9FFF7DEF9C9
:104F4000782000F085FFFFF711FA402000F080FF85
:104F5000FFF70CFA5FF0000506EBC500005D00F0FE
:104F600077FFFFF703FA6D1CEDB2802DF4D3FFF746
:104F7000E5F9641CE4B2082CD2D370BD18010020FE
:104F80002DE9FC4F1C460E4682468B460190082BAD
:104F90000ED0600700D0012000EBD400610810FBA8
:104FA00001F0C0B28146203AD0B2009000204AE021
:104FB0000620F7E7082C12D00C2C17D0102C1AD092
:104FC000182C43D10098234900EBC00001EB80016D
:104FD000002711F80850E80712D00B9A13E0009848
:104FE0001D4900EB400001EB4001F1E700981B492F
:104FF00000EB4000EAE71A49009801EB0011E7E7EF
:105000000B9828B3002231465046FFF705FF761C67
:105010007F1C6D08FFB2F6B2082FDCD30AF1010045
:1050200000F0FF0A082C0AD00199AAEB0100B0EBAE
:10503000540F04D10BF108008A4600F0FF0B08F171
:1050400001005E46C0B280464845B3D3BDE8FC8F40
:105050000122D8E7B8D000082CC4000854C60008C4
:10506000C8CA00082DE9FF4F81B0814600909846DC
:105070000C468B46580701D0012100E0002101EBCE
:10508000D80111FB08FA002537E000BFB8F10C0F7A
:105090000CD0B8F1100F32D11B48039900EB41102E
:1050A0000026475DF80708D00E9A09E003981749D3
:1050B00000EB400001EBC000F2E70E9810B30022B5
:1050C00021464846FFF7A8FE641C761C7F08F6B20E
:1050D000E4B2082EE6D309F10100009900F0FF09BF
:1050E000A9EB0101414505D10BF10800DDF8009065
:1050F00000F0FF0B6D1C5C46ADB25545C6D305B044
:10510000BDE8F08F0122DBE754E0000814DE000860
:105110002DE9FF4F83B08046019092460C464FF038
:1051200000098B46580700D0012000EBD300069001
:10513000002032E000262BE01098002510F80970BE
:1051400009F101001FFA80F9F80701D0119A02E075
:10515000119858B3002221464046FFF75DFE641CBB
:105160006D1C7F08EDB2E4B2082DEDD308F101000B
:10517000019900F0FF08A8EB0101514505D10BF1A1
:105180000800DDF8048000F0FF0B761C5C46F6B2E8
:105190005645D1D30098401CC0B206990090884271
:1051A000C8D307B0BDE8F04FFFF7B6BE0122D2E783
:1051B0002DE9F8431E46154688460446089F0BE035
:1051C0003346414620460097FFF7DAFE082E0CD002
:1051D00004EB5600C4B26D1C2A78A2F120005E28B0
:1051E000EED9BDE8F843FFF797BEA41DE4B2F2E79D
:1051F00070B50C460546FFF781F8782000F028FED0
:10520000FFF7B4F80CB1402000E0002000F020FED1
:10521000FFF7ACF8284600F01BFEFFF7A7F8BDE843
:105220007040FFF78BB870470A6842624A68826232
:10523000D1E902231A43D1E904310B43C16A1A436D
:1052400021F0F7011143C16200207047006800F0AF
:105250000300704708444069704700000148FDF7AB
:1052600085BE0000DC42002070B50DF1100C11432A
:105270009CE870002343194329434268314347F6B1
:10528000FF639A430A434260002070BD10B50321BA
:1052900001600220FCF7FAFC002010BDD0F880006D
:1052A00070470A688260D1E901231A43D1E90331CA
:1052B0000B43C1681A436FF30B011143C160002017
:1052C00070470968C0F880100020704710B586B09C
:1052D00004463720CDE900104020029000200390C2
:1052E0004FF48060049069462046FFF7DAFF41F2F0
:1052F00088323721204600F0BDF906B010BD00000D
:1053000010B504460A4886B001432920CDE90010B3
:1053100040200290002003904FF480600490694682
:105320002046FFF7BEFF204600F05CFA06B010BD35
:105330000000108010B586B004461020CDE90010A2
:1053400040200290002003904FF480600490694652
:105350002046FFF7A6FF41F288321021204600F0D8
:1053600089F906B010BD10B586B004460620CDE917
:10537000001040200290002003904FF480600490C1
:1053800069462046FFF78DFF41F28832062120460C
:1053900000F070F906B010BD30B585B000240546A8
:1053A000009401944FF480600294CDE90340694673
:1053B0002846FFF776FF0B484FF4FA510068B0FB20
:1053C000F1F041F288314843401E03D24FF00040D3
:1053D00005B030BD696B0906F6D5C520A863204627
:1053E000F6E70000DC00002070B585B004464FF4FD
:1053F000D570009001A908204025002681E86100B1
:10540000C001049069462046FFF74BFF12484FF455
:10541000FA510068B0FBF1F041F288314843401E78
:1054200003D24FF0004005B070BD616B11F0450F25
:10543000F5D00905F3D4606B400701D5042003E0E3
:10544000606BC00702D00120A063ECE7606B4006F0
:1054500000D5A5633046E6E7DC00002010B586B035
:1054600004461220CDE90010402002900020039055
:105470004FF48060049069462046FFF712FF41F226
:1054800088321221204600F0F5F806B010BD10B5A4
:1054900086B004461120CDE9001040200290002083
:1054A00003904FF48060049069462046FFF7F9FEB0
:1054B00041F288321121204600F0DCF806B010BD20
:1054C00010B586B004460720CDE9002040200290A8
:1054D000002003904FF48060049069462046FFF757
:1054E000E0FE41F288320721204600F0C3F806B002
:1054F00010BD10B586B0044600210220CDE9001091
:10550000C020CDE902014FF4806004906946204636
:10551000FFF7C7FE204600F03DF906B010BD10B5FC
:1055200086B004460920CDE90010C020029000207A
:1055300003904FF48060049069462046FFF7B1FE67
:10554000204600F027F906B010BD10B586B004461D
:1055500000213320CDE900104020CDE902010001F7
:10556000049069462046FFF79CFE41F288323321C1
:10557000204600F07FF806B010BD10B586B0044696
:105580000D20CDE9001040200290002003904FF440
:105590008060049069462046FFF783FE41F288321E
:1055A0000D21204600F066F806B010BD30B585B07C
:1055B0000C46054600210320CDE900104020CDE92E
:1055C00002010001049069462846FFF76AFE224660
:1055D0000321284600F028F905B030BD10B586B08B
:1055E000044600210C20CDE900104020CDE9020145
:1055F0000001049069462046FFF753FE034A0C2140
:10560000204600F037F806B010BD000000E1F505B7
:1056100010B586B004461920CDE900104020029054
:10562000002003904FF48060049069462046FFF705
:1056300038FE41F288321921204600F01BF806B0EE
:1056400010BD10B586B004461820CDE900104020EA
:105650000290002003904FF4806004906946204639
:10566000FFF71FFE41F288321821204600F002F8B1
:1056700006B010BD454B10B51B684FF4FA54B3FB90
:10568000F4F353435B1E02D24FF0004010BD426B57
:1056900012F0450FF6D01205F4D4426B520703D531
:1056A00004218163084610BD426BD20702D001215C
:1056B000816305E0C52282630269D2B28A4201D0C9
:1056C000012010BD0021FFF7C5FD3149084201D17D
:1056D000002010BD002802DA4FF0007010BD41001C
:1056E00001D5402010BD810001D5802010BDC10032
:1056F00002D54FF4807010BD010102D54FF4007047
:1057000010BD410102D54FF4806010BDC10102D52A
:105710004FF4006010BD010202D54FF4805010BD5F
:10572000410202D54FF4005010BD810202D54FF462
:10573000804010BDC10202D54FF4004010BD4103AE
:1057400002D54FF4003010BD810302D54FF4802004
:1057500010BDC10302D54FF4002010BD010402D5D5
:105760004FF4801010BD410402D54FF4001010BD5D
:10577000810402D54FF4800010BD000702D54FF41C
:10578000000010BD4FF4803010BD0000DC00002090
:1057900008E0FFFD12494FF4FA520968B1FBF2F13B
:1057A00041F288325143491E02D24FF00040704707
:1057B000426B12F0450FF6D01205F4D4416B490745
:1057C00003D50421816308467047416BC90703D0A4
:1057D0000121816308467047C5218163002070471D
:1057E000DC0000200F494FF4FA520968B1FBF2F1D6
:1057F00041F288325143491E02D24FF000407047B7
:10580000426B12F0450FF6D01205F4D4416B4907F4
:1058100003D50421816308467047C52181630020B8
:1058200070470000DC00002030B5204B4FF4FA54E4
:105830001B68B3FBF4F341F2883463435B1E02D26E
:105840004FF0004030BD446B14F0450FF6D02405F6
:10585000F4D4436B5B0703D504218163084630BD54
:10586000436BDB0702D00121816303E00369DBB2F4
:105870008B4201D0012030BDC52181630021FFF79B
:10588000E9FC10F4604F04D0410406D54FF40050F9
:1058900030BD000C1080002030BD000402D54FF454
:1058A000805030BD4FF4803030BD0000DC0000205F
:1058B00010B5064C01202070FBF754FA18B9207877
:1058C00020F001002070207810BD0000E0000020D2
:1058D00070B50546FCF7DCFA0446FCF7D9FA001B64
:1058E000A84207D2FBF73EFA38B1FCF7D1FA001B09
:1058F000A842F7D34FF0FF3070BD002070BD00000C
:1059000010B5846BFCF74DF8022828D0206C416D4F
:10591000E06B406D012901D001281DD1216810489C
:1059200088632068C16B21F49D71C163A06B40F056
:105930008040A0632046FDF703FB062801D0052820
:1059400005D12068FFF74AFEA16B0843A063012040
:1059500084F83400002020632046FDF711FA10BDC2
:10596000FF05400010B5846B206B822809D12068A8
:10597000FFF734FE28B1A16B0143A1632046FDF778
:10598000FFF92068C16A21F00801C162216840F274
:105990003A508863012084F83400002020632046B8
:1059A000FDF762FD10BD10B5846B40F23A502168DE
:1059B00088632046FDF7C4FA012184F834100021E1
:1059C0002163062801D0052805D12068FFF706FECF
:1059D000A16B0843A063A06B0028204602D0FDF70E
:1059E000CFF910BDFDF74EF910BD806B0068C16B9B
:1059F00041F48071C163704710B5846B40F23A5036
:105A0000216888632046FDF79BFA012184F8341051
:105A100000212163062801D0052805D12068FFF761
:105A2000DDFDA16B0843A063A06B0028204602D0D7
:105A3000FDF7A6F910BDFDF725F910BD2DE9F04FD2
:105A400089B00D460446FCF723FA002683460096EB
:105A50000196374608212068FFF76CFC002834D1F6
:105A6000B4F8500001042068FFF730FC00282CD166
:105A7000401E4FF00808CDE9020830204FF002091F
:105A8000CDE904090120CDE9067002A92068FFF7DD
:105A9000CBFB2068FFF759FD002816D1EA4640F2FB
:105AA0002A472068416B394212D1416B890204D5E3
:105AB000FFF7F4FB4AF82600761CFCF7E9F9A0EBA7
:105AC0000B00401CEDD14FF0004009B0BDE8F08F55
:105AD000416B090703D5C0F838800820F5E7416B12
